{
  "contractName": "AltynIDO",
  "abi": [
    {
      "inputs": [
        {
          "internalType": "address",
          "name": "_contractAltyn",
          "type": "address"
        }
      ],
      "stateMutability": "nonpayable",
      "type": "constructor"
    },
    {
      "inputs": [],
      "name": "contractAltyn",
      "outputs": [
        {
          "internalType": "address",
          "name": "",
          "type": "address"
        }
      ],
      "stateMutability": "view",
      "type": "function",
      "constant": true
    },
    {
      "inputs": [],
      "name": "rate",
      "outputs": [
        {
          "internalType": "uint256",
          "name": "",
          "type": "uint256"
        }
      ],
      "stateMutability": "view",
      "type": "function",
      "constant": true
    },
    {
      "inputs": [
        {
          "internalType": "uint256",
          "name": "_rate",
          "type": "uint256"
        }
      ],
      "name": "setRate",
      "outputs": [],
      "stateMutability": "nonpayable",
      "type": "function"
    },
    {
      "inputs": [],
      "name": "getRate",
      "outputs": [
        {
          "internalType": "uint256",
          "name": "",
          "type": "uint256"
        }
      ],
      "stateMutability": "view",
      "type": "function",
      "constant": true
    },
    {
      "inputs": [],
      "name": "preSale",
      "outputs": [],
      "stateMutability": "payable",
      "type": "function",
      "payable": true
    },
    {
      "inputs": [],
      "name": "withdraw",
      "outputs": [],
      "stateMutability": "nonpayable",
      "type": "function"
    }
  ],
  "bytecode": "0x608060405234801561001057600080fd5b5060405161037b38038061037b83398101604081905261002f91610068565b60008054336001600160a01b031991821617909155610fa0600255600180549091166001600160a01b0392909216919091179055610098565b60006020828403121561007a57600080fd5b81516001600160a01b038116811461009157600080fd5b9392505050565b6102d4806100a76000396000f3fe6080604052600436106100555760003560e01c80632c4e722e1461005a57806334fcf437146100835780633ccfd60b146100a55780635a7adf7f146100ba578063679aefce146100c2578063df9cfdf2146100d7575b600080fd5b34801561006657600080fd5b5061007060025481565b6040519081526020015b60405180910390f35b34801561008f57600080fd5b506100a361009e36600461022f565b61010f565b005b3480156100b157600080fd5b506100a361012b565b6100a361018c565b3480156100ce57600080fd5b50600254610070565b3480156100e357600080fd5b506001546100f7906001600160a01b031681565b6040516001600160a01b03909116815260200161007a565b6000546001600160a01b0316331461012657600080fd5b600255565b6000546001600160a01b0316331461014257600080fd5b6000471161014f57600080fd5b600080546040516001600160a01b03909116914780156108fc02929091818181858888f19350505050158015610189573d6000803e3d6000fd5b50565b3461019657600080fd5b6001546002546001600160a01b0390911690819063a9059cbb9033906101bc9034610248565b6040516001600160e01b031960e085901b1681526001600160a01b03909216600483015260248201526044016020604051808303816000875af1158015610207573d6000803e3d6000fd5b505050506040513d601f19601f8201168201806040525081019061022b9190610275565b5050565b60006020828403121561024157600080fd5b5035919050565b600081600019048311821515161561027057634e487b7160e01b600052601160045260246000fd5b500290565b60006020828403121561028757600080fd5b8151801515811461029757600080fd5b939250505056fea2646970667358221220a9f34a5dc276101254c98eea7382bc33496182ed8b139b756445415d73447bd964736f6c634300080b0033",
  "immutableReferences": {},
  "source": "// contracts/GLDToken.sol\r\n// SPDX-License-Identifier: MIT\r\npragma solidity ^0.8.0;\r\n\r\ninterface IERC20 {\r\n    function transfer(address _to, uint256 _value) external returns (bool);\r\n}\r\n\r\ncontract AltynIDO {\r\n    address private admin;\r\n    address public contractAltyn;\r\n    uint256 public rate;\r\n\r\n    constructor(address _contractAltyn) public {\r\n      admin = msg.sender;\r\n      rate = 4000;\r\n      contractAltyn = _contractAltyn;\r\n    }\r\n\r\n    function setRate(uint256 _rate) public {\r\n      require(msg.sender == admin);\r\n      //rate = _rate; // how many ETH for 1 ALTYN\r\n      rate = _rate; // how many ALTYN for 1 ETH\r\n    }\r\n\r\n    function getRate() public view returns (uint256) {\r\n      return rate;\r\n    }\r\n\r\n    function preSale() external payable {\r\n      require(msg.value != 0);\r\n      IERC20 altyn = IERC20(contractAltyn);\r\n      altyn.transfer(msg.sender, msg.value * rate);// (rate * (10 ** 18)) / (10 ** 18));\r\n    }\r\n\r\n    function withdraw() external {\r\n      require(msg.sender == admin);\r\n      require(address(this).balance > 0);\r\n      payable(admin).transfer(address(this).balance);\r\n    }\r\n}\r\n",
  "sourcePath": "D:\\Atom\\Altyn\\contracts\\AltynIDO.sol",
  "compiler": {
    "name": "solc",
    "version": "0.8.11+commit.d7f03943.Emscripten.clang"
  },
  "schemaVersion": "3.4.5",
  "updatedAt": "2022-03-14T17:51:15.850Z",
  "networkType": "ethereum",
  "devdoc": {
    "kind": "dev",
    "methods": {},
    "version": 1
  },
  "userdoc": {
    "kind": "user",
    "methods": {},
    "version": 1
  }
}