{
  "contractName": "Altyn",
  "abi": [
    {
      "inputs": [],
      "stateMutability": "nonpayable",
      "type": "constructor"
    },
    {
      "anonymous": false,
      "inputs": [
        {
          "indexed": true,
          "internalType": "address",
          "name": "owner",
          "type": "address"
        },
        {
          "indexed": true,
          "internalType": "address",
          "name": "spender",
          "type": "address"
        },
        {
          "indexed": false,
          "internalType": "uint256",
          "name": "value",
          "type": "uint256"
        }
      ],
      "name": "Approval",
      "type": "event"
    },
    {
      "anonymous": false,
      "inputs": [
        {
          "indexed": true,
          "internalType": "address",
          "name": "from",
          "type": "address"
        },
        {
          "indexed": true,
          "internalType": "address",
          "name": "to",
          "type": "address"
        },
        {
          "indexed": false,
          "internalType": "uint256",
          "name": "value",
          "type": "uint256"
        }
      ],
      "name": "Transfer",
      "type": "event"
    },
    {
      "inputs": [
        {
          "internalType": "address",
          "name": "owner",
          "type": "address"
        },
        {
          "internalType": "address",
          "name": "spender",
          "type": "address"
        }
      ],
      "name": "allowance",
      "outputs": [
        {
          "internalType": "uint256",
          "name": "",
          "type": "uint256"
        }
      ],
      "stateMutability": "view",
      "type": "function",
      "constant": true
    },
    {
      "inputs": [
        {
          "internalType": "address",
          "name": "spender",
          "type": "address"
        },
        {
          "internalType": "uint256",
          "name": "amount",
          "type": "uint256"
        }
      ],
      "name": "approve",
      "outputs": [
        {
          "internalType": "bool",
          "name": "",
          "type": "bool"
        }
      ],
      "stateMutability": "nonpayable",
      "type": "function"
    },
    {
      "inputs": [
        {
          "internalType": "address",
          "name": "account",
          "type": "address"
        }
      ],
      "name": "balanceOf",
      "outputs": [
        {
          "internalType": "uint256",
          "name": "",
          "type": "uint256"
        }
      ],
      "stateMutability": "view",
      "type": "function",
      "constant": true
    },
    {
      "inputs": [
        {
          "internalType": "address",
          "name": "spender",
          "type": "address"
        },
        {
          "internalType": "uint256",
          "name": "subtractedValue",
          "type": "uint256"
        }
      ],
      "name": "decreaseAllowance",
      "outputs": [
        {
          "internalType": "bool",
          "name": "",
          "type": "bool"
        }
      ],
      "stateMutability": "nonpayable",
      "type": "function"
    },
    {
      "inputs": [
        {
          "internalType": "address",
          "name": "spender",
          "type": "address"
        },
        {
          "internalType": "uint256",
          "name": "addedValue",
          "type": "uint256"
        }
      ],
      "name": "increaseAllowance",
      "outputs": [
        {
          "internalType": "bool",
          "name": "",
          "type": "bool"
        }
      ],
      "stateMutability": "nonpayable",
      "type": "function"
    },
    {
      "inputs": [],
      "name": "name",
      "outputs": [
        {
          "internalType": "string",
          "name": "",
          "type": "string"
        }
      ],
      "stateMutability": "view",
      "type": "function",
      "constant": true
    },
    {
      "inputs": [],
      "name": "symbol",
      "outputs": [
        {
          "internalType": "string",
          "name": "",
          "type": "string"
        }
      ],
      "stateMutability": "view",
      "type": "function",
      "constant": true
    },
    {
      "inputs": [],
      "name": "totalSupply",
      "outputs": [
        {
          "internalType": "uint256",
          "name": "",
          "type": "uint256"
        }
      ],
      "stateMutability": "view",
      "type": "function",
      "constant": true
    },
    {
      "inputs": [
        {
          "internalType": "address",
          "name": "recipient",
          "type": "address"
        },
        {
          "internalType": "uint256",
          "name": "amount",
          "type": "uint256"
        }
      ],
      "name": "transfer",
      "outputs": [
        {
          "internalType": "bool",
          "name": "",
          "type": "bool"
        }
      ],
      "stateMutability": "nonpayable",
      "type": "function"
    },
    {
      "inputs": [
        {
          "internalType": "address",
          "name": "sender",
          "type": "address"
        },
        {
          "internalType": "address",
          "name": "recipient",
          "type": "address"
        },
        {
          "internalType": "uint256",
          "name": "amount",
          "type": "uint256"
        }
      ],
      "name": "transferFrom",
      "outputs": [
        {
          "internalType": "bool",
          "name": "",
          "type": "bool"
        }
      ],
      "stateMutability": "nonpayable",
      "type": "function"
    },
    {
      "inputs": [],
      "name": "decimals",
      "outputs": [
        {
          "internalType": "uint8",
          "name": "",
          "type": "uint8"
        }
      ],
      "stateMutability": "pure",
      "type": "function",
      "constant": true
    },
    {
      "inputs": [],
      "name": "getPreSaleContract",
      "outputs": [
        {
          "internalType": "address",
          "name": "",
          "type": "address"
        }
      ],
      "stateMutability": "view",
      "type": "function",
      "constant": true
    },
    {
      "inputs": [
        {
          "internalType": "address",
          "name": "_preSaleContract",
          "type": "address"
        }
      ],
      "name": "setPreSaleContract",
      "outputs": [],
      "stateMutability": "nonpayable",
      "type": "function"
    }
  ],
  "bytecode": "0x60806040523480156200001157600080fd5b50604080518082018252600a81526920b63a3cb71021b7b4b760b11b60208083019182528351808501909452600584526420a62a2ca760d91b9084015281519192916200006191600391620001b9565b50805162000077906004906020840190620001b9565b505050620000b4336200008f620000cc60201b60201c565b6200009f9060ff16600a62000374565b620000ae90620f424062000389565b620000d1565b600580546001600160a01b0319163317905562000403565b601290565b6001600160a01b0382166200012c5760405162461bcd60e51b815260206004820152601f60248201527f45524332303a206d696e7420746f20746865207a65726f206164647265737300604482015260640160405180910390fd5b8060026000828254620001409190620003ab565b90915550506001600160a01b038216600090815260208190526040812080548392906200016f908490620003ab565b90915550506040518181526001600160a01b038316906000907fddf252ad1be2c89b69c2b068fc378daa952ba7f163c4a11628f55a4df523b3ef9060200160405180910390a35050565b828054620001c790620003c6565b90600052602060002090601f016020900481019282620001eb576000855562000236565b82601f106200020657805160ff191683800117855562000236565b8280016001018555821562000236579182015b828111156200023657825182559160200191906001019062000219565b506200024492915062000248565b5090565b5b8082111562000244576000815560010162000249565b634e487b7160e01b600052601160045260246000fd5b600181815b80851115620002b65781600019048211156200029a576200029a6200025f565b80851615620002a857918102915b93841c93908002906200027a565b509250929050565b600082620002cf575060016200036e565b81620002de575060006200036e565b8160018114620002f75760028114620003025762000322565b60019150506200036e565b60ff8411156200031657620003166200025f565b50506001821b6200036e565b5060208310610133831016604e8410600b841016171562000347575081810a6200036e565b62000353838362000275565b80600019048211156200036a576200036a6200025f565b0290505b92915050565b6000620003828383620002be565b9392505050565b6000816000190483118215151615620003a657620003a66200025f565b500290565b60008219821115620003c157620003c16200025f565b500190565b600181811c90821680620003db57607f821691505b60208210811415620003fd57634e487b7160e01b600052602260045260246000fd5b50919050565b610b6b80620004136000396000f3fe608060405234801561001057600080fd5b50600436106100cf5760003560e01c806370a082311161008c578063a9059cbb11610066578063a9059cbb146101a0578063b5a5b8f5146101b3578063dd62ed3e146101c8578063ee952b151461020157600080fd5b806370a082311461015c57806395d89b4114610185578063a457c2d71461018d57600080fd5b806306fdde03146100d4578063095ea7b3146100f257806318160ddd1461011557806323b872dd14610127578063313ce5671461013a5780633950935114610149575b600080fd5b6100dc61021c565b6040516100e99190610891565b60405180910390f35b610105610100366004610902565b6102ae565b60405190151581526020016100e9565b6002545b6040519081526020016100e9565b61010561013536600461092c565b6102c5565b604051601281526020016100e9565b610105610157366004610902565b610374565b61011961016a366004610968565b6001600160a01b031660009081526020819052604090205490565b6100dc6103b0565b61010561019b366004610902565b6103bf565b6101056101ae366004610902565b610458565b6101c66101c1366004610968565b610465565b005b6101196101d636600461098a565b6001600160a01b03918216600090815260016020908152604080832093909416825291909152205490565b6006546040516001600160a01b0390911681526020016100e9565b60606003805461022b906109bd565b80601f0160208091040260200160405190810160405280929190818152602001828054610257906109bd565b80156102a45780601f10610279576101008083540402835291602001916102a4565b820191906000526020600020905b81548152906001019060200180831161028757829003601f168201915b5050505050905090565b60006102bb3384846104bf565b5060015b92915050565b60006102d28484846105e3565b6001600160a01b03841660009081526001602090815260408083203384529091529020548281101561035c5760405162461bcd60e51b815260206004820152602860248201527f45524332303a207472616e7366657220616d6f756e74206578636565647320616044820152676c6c6f77616e636560c01b60648201526084015b60405180910390fd5b61036985338584036104bf565b506001949350505050565b3360008181526001602090815260408083206001600160a01b038716845290915281205490916102bb9185906103ab908690610a0e565b6104bf565b60606004805461022b906109bd565b3360009081526001602090815260408083206001600160a01b0386168452909152812054828110156104415760405162461bcd60e51b815260206004820152602560248201527f45524332303a2064656372656173656420616c6c6f77616e63652062656c6f77604482015264207a65726f60d81b6064820152608401610353565b61044e33858584036104bf565b5060019392505050565b60006102bb3384846105e3565b6005546001600160a01b0316331461047c57600080fd5b600680546001600160a01b0319166001600160a01b0383169081179091556104bc906104aa6012600a610b0a565b6104b790620f4240610b16565b6107b2565b50565b6001600160a01b0383166105215760405162461bcd60e51b8152602060048201526024808201527f45524332303a20617070726f76652066726f6d20746865207a65726f206164646044820152637265737360e01b6064820152608401610353565b6001600160a01b0382166105825760405162461bcd60e51b815260206004820152602260248201527f45524332303a20617070726f766520746f20746865207a65726f206164647265604482015261737360f01b6064820152608401610353565b6001600160a01b0383811660008181526001602090815260408083209487168084529482529182902085905590518481527f8c5be1e5ebec7d5bd14f71427d1e84f3dd0314c0f7b2291e5b200ac8c7c3b925910160405180910390a3505050565b6001600160a01b0383166106475760405162461bcd60e51b815260206004820152602560248201527f45524332303a207472616e736665722066726f6d20746865207a65726f206164604482015264647265737360d81b6064820152608401610353565b6001600160a01b0382166106a95760405162461bcd60e51b815260206004820152602360248201527f45524332303a207472616e7366657220746f20746865207a65726f206164647260448201526265737360e81b6064820152608401610353565b6001600160a01b038316600090815260208190526040902054818110156107215760405162461bcd60e51b815260206004820152602660248201527f45524332303a207472616e7366657220616d6f756e7420657863656564732062604482015265616c616e636560d01b6064820152608401610353565b6001600160a01b03808516600090815260208190526040808220858503905591851681529081208054849290610758908490610a0e565b92505081905550826001600160a01b0316846001600160a01b03167fddf252ad1be2c89b69c2b068fc378daa952ba7f163c4a11628f55a4df523b3ef846040516107a491815260200190565b60405180910390a350505050565b6001600160a01b0382166108085760405162461bcd60e51b815260206004820152601f60248201527f45524332303a206d696e7420746f20746865207a65726f2061646472657373006044820152606401610353565b806002600082825461081a9190610a0e565b90915550506001600160a01b03821660009081526020819052604081208054839290610847908490610a0e565b90915550506040518181526001600160a01b038316906000907fddf252ad1be2c89b69c2b068fc378daa952ba7f163c4a11628f55a4df523b3ef9060200160405180910390a35050565b600060208083528351808285015260005b818110156108be578581018301518582016040015282016108a2565b818111156108d0576000604083870101525b50601f01601f1916929092016040019392505050565b80356001600160a01b03811681146108fd57600080fd5b919050565b6000806040838503121561091557600080fd5b61091e836108e6565b946020939093013593505050565b60008060006060848603121561094157600080fd5b61094a846108e6565b9250610958602085016108e6565b9150604084013590509250925092565b60006020828403121561097a57600080fd5b610983826108e6565b9392505050565b6000806040838503121561099d57600080fd5b6109a6836108e6565b91506109b4602084016108e6565b90509250929050565b600181811c908216806109d157607f821691505b602082108114156109f257634e487b7160e01b600052602260045260246000fd5b50919050565b634e487b7160e01b600052601160045260246000fd5b60008219821115610a2157610a216109f8565b500190565b600181815b80851115610a61578160001904821115610a4757610a476109f8565b80851615610a5457918102915b93841c9390800290610a2b565b509250929050565b600082610a78575060016102bf565b81610a85575060006102bf565b8160018114610a9b5760028114610aa557610ac1565b60019150506102bf565b60ff841115610ab657610ab66109f8565b50506001821b6102bf565b5060208310610133831016604e8410600b8410161715610ae4575081810a6102bf565b610aee8383610a26565b8060001904821115610b0257610b026109f8565b029392505050565b60006109838383610a69565b6000816000190483118215151615610b3057610b306109f8565b50029056fea264697066735822122025a009a4409b44abb0f901f42feb3a2eed7edce728cd83021d07bccac7a9094164736f6c634300080b0033",
  "immutableReferences": {},
  "source": "// contracts/GLDToken.sol\r\n// SPDX-License-Identifier: MIT\r\npragma solidity ^0.8.0;\r\n\r\nimport \"@openzeppelin/contracts/token/ERC20/ERC20.sol\";\r\n\r\ncontract Altyn is ERC20 {\r\n\r\n    address private admin;\r\n    address private preSaleContract;\r\n\r\n//  constructor(uint256 initialSupply) ERC20(\"Simple_Token\", \"ST\") {\r\n//      _mint(msg.sender, initialSupply);\r\n    constructor() ERC20(\"Altyn Coin\", \"ALTYN\") {\r\n        _mint(msg.sender, 1000000 * (10 ** uint256(decimals()))); //    \r\n        admin = msg.sender;\r\n    }\r\n\r\n    function decimals() public pure override returns (uint8) {\r\n        return 18;\r\n    }\r\n\r\n    function getPreSaleContract() public view returns (address) {\r\n      return preSaleContract;\r\n    }\r\n\r\n    function setPreSaleContract(address _preSaleContract) public {\r\n      require(msg.sender == admin);\r\n      preSaleContract = _preSaleContract;\r\n      _mint(preSaleContract, 1000000 * (10 ** uint256(decimals())));\r\n    }\r\n\r\n}\r\n",
  "sourcePath": "D:\\Atom\\Altyn\\contracts\\Altyn.sol",
  "compiler": {
    "name": "solc",
    "version": "0.8.11+commit.d7f03943.Emscripten.clang"
  },
  "schemaVersion": "3.4.5",
  "updatedAt": "2022-03-14T17:51:15.841Z",
  "networkType": "ethereum",
  "devdoc": {
    "kind": "dev",
    "methods": {
      "allowance(address,address)": {
        "details": "See {IERC20-allowance}."
      },
      "approve(address,uint256)": {
        "details": "See {IERC20-approve}. Requirements: - `spender` cannot be the zero address."
      },
      "balanceOf(address)": {
        "details": "See {IERC20-balanceOf}."
      },
      "decimals()": {
        "details": "Returns the number of decimals used to get its user representation. For example, if `decimals` equals `2`, a balance of `505` tokens should be displayed to a user as `5.05` (`505 / 10 ** 2`). Tokens usually opt for a value of 18, imitating the relationship between Ether and Wei. This is the value {ERC20} uses, unless this function is overridden; NOTE: This information is only used for _display_ purposes: it in no way affects any of the arithmetic of the contract, including {IERC20-balanceOf} and {IERC20-transfer}."
      },
      "decreaseAllowance(address,uint256)": {
        "details": "Atomically decreases the allowance granted to `spender` by the caller. This is an alternative to {approve} that can be used as a mitigation for problems described in {IERC20-approve}. Emits an {Approval} event indicating the updated allowance. Requirements: - `spender` cannot be the zero address. - `spender` must have allowance for the caller of at least `subtractedValue`."
      },
      "increaseAllowance(address,uint256)": {
        "details": "Atomically increases the allowance granted to `spender` by the caller. This is an alternative to {approve} that can be used as a mitigation for problems described in {IERC20-approve}. Emits an {Approval} event indicating the updated allowance. Requirements: - `spender` cannot be the zero address."
      },
      "name()": {
        "details": "Returns the name of the token."
      },
      "symbol()": {
        "details": "Returns the symbol of the token, usually a shorter version of the name."
      },
      "totalSupply()": {
        "details": "See {IERC20-totalSupply}."
      },
      "transfer(address,uint256)": {
        "details": "See {IERC20-transfer}. Requirements: - `recipient` cannot be the zero address. - the caller must have a balance of at least `amount`."
      },
      "transferFrom(address,address,uint256)": {
        "details": "See {IERC20-transferFrom}. Emits an {Approval} event indicating the updated allowance. This is not required by the EIP. See the note at the beginning of {ERC20}. Requirements: - `sender` and `recipient` cannot be the zero address. - `sender` must have a balance of at least `amount`. - the caller must have allowance for ``sender``'s tokens of at least `amount`."
      }
    },
    "version": 1
  },
  "userdoc": {
    "kind": "user",
    "methods": {},
    "version": 1
  }
}